:02000004C0D06A
:1000000009487C2102F0F8FB2120C100074802F0DA
:10001000DDFB01F017FE002001F0C2FC012001F021
:10002000BFFC00F013F8C04600020020FC020020D4
:1000300010B5044662B601F025FD002C01D100F098
:10004000BBFD002010BDFF2002F0FAF9D4B018A8C3
:100050000027078017A8078016A8077041A8093055
:10006000099041A8093008906F2630020690079643
:1000700005970AAC204602F0B7FCA08584B2002C9C
:1000800020D0052C00D1ACE125460AA8878514981C
:1000900002F00CFA17A80780D9496118090B032947
:1000A000214600D33102D34A944200D129460A0A9C
:1000B0000388D14CE2545A1C02800288A154511C7E
:1000C00001807FE10AA802F0F1F9149016AC2078C3
:1000D00017AD298801F0BCFE18A9088027702F8071
:1000E0000888032804D817A801886722C24D21E098
:1000F00018A80188C04D2878E02818D168783C46B7
:10010000052921D3297900293A461ED018AA158835
:100110004B1D0024AB42254601D8B74D6D1D1288FA
:10012000934200D80C4622462C46B34D0DE017A84A
:1001300001886E226A54491C018001884A1C028091
:1001400008460021295494E73A46114604940428AD
:100150002FD001280ED002283DD0032840D00028FF
:1001600051D10120E8700021A97069702870042025
:1001700001461FE16A228020052900D210E1049B7C
:100180001C78002C00D10BE10A2C00D908E1A0005A
:10019000401C884235D80025984EAC426AD0A80051
:1001A000401C81B2049800F031F9059F01C66D1C16
:1001B000F3E7002911D037AA049800F035FA002897
:1001C000069800D0E7E028218C48415C00292ED019
:1001D00019AA41AB36E04B2918D26A228020DFE011
:1001E0006A228020052900D2DAE0049B1C78002CCA
:1001F00000D1D5E00A2C00D9D2E0A000401C8842F2
:100200006FD9672200E06D223846C9E037AA04980A
:1002100000F00AFA0028069800D0BCE028217748B0
:10022000415C002900D190E019AA41AB98E02DACC7
:10023000754979441422204602F0CEFA052119AA04
:1002400041AB204600F0EEF80028069800D0A2E06E
:10025000284640250090019519AC052137AA202396
:10026000204601F0EDFB03902821204602F0C4FA5D
:1002700003988BE02820614D2C5419AA41AB2846E5
:10028000214600F0CFF80028069828D12C462934C2
:10029000202620460999324602F09EFA19A8282104
:1002A00002F0AAFA49352046294600F0EFF8002866
:1002B000069814D13246504E3270701C214602F01E
:1002C0008BFA284602F0AAFB04462120345430461B
:1002D0002230A2B2294602F07FFA22342046079E3D
:1002E00058E0002537AEAC4208D0A800401C81B2CF
:1002F000049800F08BF801C66D1CF4E737A82DAA0E
:1003000041AB214600F08EF800280698079E3A4D32
:1003100041D125AC20222046089902F05DFA2DA893
:10032000282102F069FA19A9204600F0AFF8002848
:10033000069830D119AC204602F070FB054682B217
:100340002D48214602F048FA23E02DAC2D4979448E
:100350001422204602F040FA052119AA41AB20469A
:1003600000F060F80028069815D128464025009036
:10037000019519AC052137AA2023204601F060FB26
:1003800002902821204602F037FA0298002800D077
:10039000069D2846184D81B24A0B032A0AD30A0A41
:1003A00017A90F800B88EA545A1C0A800A88A8549F
:1003B000501C06E090226A54691800224A70801C82
:1003C00017A9088002F068F80AA9884202D1149897
:1003D00002F06CF80AA8808D002800D149E601F0EF
:1003E00056FB0AA88785149802F060F8052001F0F2
:1003F0004EFBC04685690000E80400200002002092
:1004000000A0FFFF6E2700008A280000425C120651
:100410004018417809048918827812028918C07836
:1004200008187047F0B591B01D46144601AA00F0B7
:10043000C3F8002806D001A8402102F0DDF9002011
:10044000C6431FE0712001AE20223146234601F051
:10045000F1FA07464021304602F0CEF90026F0437B
:10046000002F01D006460DE00746712001232946E2
:10047000224601F0D9FA002804D02821204602F0B3
:10048000BBF93E46304611B0F0BD0000F0B59FB05C
:100490000C46202617AA314600F0C6F80027F9437B
:1004A000002805D082E017A8C05D002802D17F1C7B
:1004B000202FF8D10291F11B8A204843642102F0D9
:1004C00099F83818401C3F2801DD02996EE007A812
:1004D000402102F07BF90020874204D007A9312295
:1004E0000A54401CF8E7019407A8C019059000249D
:1004F00038460397202820D0014617A80491405C75
:100500000027A74201DB002813D00694059CE15D7B
:1005100009020D18A8B23A26314601F0E1FF464320
:10052000A91BE155069C791CA74200DB0C460F462F
:10053000E7E70498401C039FDCE707A8C019611E89
:1005400000221C4B7B44A24205DA455C5D5D85546C
:10055000491E521CF7E7E01907A900240C54002893
:10056000029923D407A802F059FA02467420019D8B
:10057000A870632068706F2028702B2A09DC2C205B
:10058000801AE91C0023834207DA3125CD545B1C15
:10059000F9E7E81C07A92C2203E0019D2818C01CDC
:1005A00007A902F019F92F202C54214608461FB044
:1005B000F0BDC0463C250000F0B591B015460E4692
:1005C000074605AC204602F00FFAA08584B2002C45
:1005D0000AD005A8002181850F9801F067FF40210E
:1005E000284602F009F90EE005A801F05FFF0F9020
:1005F00000200095019002900390012071213A465D
:10060000334601F0D9FE01F047FF05A9884202D127
:100610000F9801F04BFF05A8808D002802D12046DD
:1006200011B0F0BD01F033FAF0B59DB016460C469E
:10063000054602A801F016FA002700280AD120205A
:100640000096019002A801212A46234601F0FEF9F6
:10065000002800D0F8431DB0F0BD80B501F05AFB72
:1006600080BD7047F8B5EF4D2878152800D1B8E067
:100670000D2800D1BDE00E285CD0EB4C00270528EA
:1006800000D0FDE0676001202070204601F0B6FE3A
:10069000042001F017FF6060002800D146E297288F
:1006A00000D143E2692800D002E201F0DBFA01F058
:1006B000DBFAC225FD4E7753042001F003FF606092
:1006C000C4243159002900D130E2002800D12DE2A4
:1006D000972800D12AE2705BC821715C80B2884201
:1006E00000D323E201F0C2FE002800D01EE201F098
:1006F00057FEAA2804D101F075FEAA2800D015E201
:100700003159725B50010818D023F358002B04D0E4
:100710009847002807D0725B3159012801D1500158
:100720000818FFF79AFF705B401C7053315900297D
:10073000D2D1FBE1FFF795FFBB4D00266E60012093
:100740002870284601F05AFE042001F0BBFE6860C4
:10075000692800D0E6E001F085FA01F085FAC224AC
:10076000F94E00203053042001F0ACFE6860C4252F
:100770007159002900D1D9E1002800D1D6E197288C
:1007800000D1D3E1305BC821715C80B2884200D3D4
:10079000CCE101F06BFE002800D0C7E101F000FEC3
:1007A000AA2804D101F01EFEAA2800D0BEE171598A
:1007B000325B50010818D023F358002B04D098471F
:1007C000002807D0325B7159012801D15001081867
:1007D000FFF743FF305B401C305371590029D2D1E1
:1007E000A4E1DA488079012803D1A879000700D470
:1007F000A4E1D44C0027676001202070204601F05E
:10080000FDFD042001F05EFE6060002800D18DE156
:10081000692800D10AE1972800D187E1CA4CC42693
:10082000A059002800D179E1C820205CC225615B75
:10083000814200D372E101F019FE002800D06DE181
:1008400001F0AEFDAA2804D101F0CCFDAA2800D009
:1008500064E1A159625B50010818D023E358002BD2
:1008600004D09847002807D0625BA159012801D124
:1008700050010818FFF7F1FE605B401C6053CEE7A3
:10088000676001202070204601F0B8FD042001F0CF
:1008900019FE6060692800D091E001F0E3F901F0F1
:1008A000E3F9C225A84E7753042001F00BFE6060E7
:1008B000C4243159002900D138E1002800D135E1A4
:1008C000972800D132E1705BC821715C80B2884208
:1008D00000D32BE101F0CAFD002800D026E101F091
:1008E0005FFDAA2804D101F07DFDAA2800D01DE1FA
:1008F0003159725B50010818D023F358002B04D0F3
:100900009847002807D0725B3159012801D1500166
:100910000818FFF7A2FE705B401C70533159002984
:10092000D2D103E10446DC20874D295800290FD09D
:100930000A46643A00D232462A50642908D8D8219F
:100940006958002904D0E022AA582A50002088477C
:10095000002C00D1EAE0972C28D1E7E0C820285CE1
:10096000C224295B814225D201F080FD002821D1DB
:1009700001F016FDAA2803D101F034FDAA2819D1EF
:10098000A9592A5B50010818D023EB58002B04D03A
:100990009847002807D02A5BA959012801D15001A6
:1009A0000818FFF75AFE285B401C2853C426A85994
:1009B0000028D3D1C820285CC221695AB2E0624C19
:1009C000C426A059002800D1A8E0C820205CC22578
:1009D000615B814200D3A1E001F048FD002800D016
:1009E0009CE001F0DDFCAA2804D101F0FBFCAA2860
:1009F00000D093E0A159625B50010818D023E3585E
:100A0000002B04D09847002807D0625BA159012829
:100A100001D150010818FFF720FE605B401C6053B5
:100A2000CEE7C0467C0200200404002001F01AF941
:100A300001F01AF9C225444E7753042001F042FD1B
:100A40006060C4243159002970D000286ED09728E6
:100A50006CD0705BC821715C80B2884266D201F0B4
:100A600005FD002862D101F09BFCAA2803D101F00A
:100A7000B9FCAA285AD13159725B50010818D02309
:100A8000F358002B04D09847002807D0725B3159E7
:100A9000012801D150010818FFF7DFFD705B401CF1
:100AA000705331590029D5D140E0C046FC020020E6
:100AB000D420254C2058002803D0E978490801F0BB
:100AC00075F9C426A059002828D0C820205CC2256A
:100AD000615B814222D201F0C9FC00281ED101F0E5
:100AE0005FFCAA2803D101F07DFCAA2816D1A159E8
:100AF000625B50010818D023E358002B04D09847BC
:100B0000002807D0625BA159012801D150010818C3
:100B1000FFF7A3FD605B401C6053D2E7C820205C58
:100B2000C221615A814201D301F0A0FC01F09EFC78
:100B3000002801D100F0B2FF0120F8BD052000F02F
:100B4000A6FFC04604040020FC020020EC050020A3
:100B5000B0B50546032028400024012812D0022801
:100B600012D1002907D00A4801F076FC280609D5E1
:100B700001F00CFC06E0412081000548002201F054
:100B80007FFC04462046B0BD022000F080FFC04636
:100B9000E804002080B52120C100064801F016FEBF
:100BA00001F050F8002000F0FBFE012000F0F8FEFC
:100BB00080BDC046FC02002010B58CB06C462046BB
:100BC00001F012FFA085000408D1684601F06EFC18
:100BD0000A90FFF7DFFFFFF713FA05E068460021F0
:100BE00081850A9801F062FC01F056FC6946884252
:100BF00002D10A9801F05AFC6846808D002801D184
:100C0000FFF721FA00F043FFFEB50E46054602A8A5
:100C10000024048001A8047009786020084010D0E6
:100C2000202837D1707801460A39022932D30228A8
:100C30001BD0032819D02846314600F06FFE02244D
:100C400028E070780B2813D00A280ED0062821D16E
:100C5000F078002421280FD022282246214616D1E0
:100C600002AF384600F084FD0AE001A901220EE03F
:100C7000284600F057FC0DE002AF384600F064FD56
:100C800001463A88F088824200D302463A802846DC
:100C900000F01DFC2046FEBDF8B504468221032667
:100CA000402532462B4600F097FC02272046394665
:100CB00032462B4600F090FC204639462A4600F08A
:100CC00032FD0020F8BD00207047F8B5002812D092
:100CD00015460E46044607469C37D42101F076FDA2
:100CE000002E00D07E61257001203870204600F073
:100CF00031FC0020F8BD0220F8BDB0B504469C20B0
:100D000001212154B425CC2D0BD06059002806D0E8
:100D1000406801F025FB02462179204690470835BE
:100D2000F1E7204600F049FC204600F01DFC0020C1
:100D3000B0BD002A08D003460020022B03D8DB00F8
:100D4000C918B423CA5070470220704780B500F01C
:100D50001AFC002080BDF8B50C4605460746B4379E
:100D60000026032E10D02846314600F06AF90028EC
:100D700007D03868006801F0F3FA02462846214699
:100D800090470837761CECE70020F8BDF8B50C4614
:100D900005460746B4370026032E10D028463146B4
:100DA00000F04FF9002807D03868406801F0D8FA01
:100DB00002462846214690470837761CECE700207B
:100DC000F8BD70B5044606469436354614352846B7
:100DD00000F05FFB942001212150AE20205A70606A
:100DE000317D1F200840022808D001280BD00028A0
:100DF0000ED12046294600F02FF90EE02046294664
:100E000000F0CBFA09E02046294600F0A2FA04E0FF
:100E100080200140204600F00BFC002070BDF0B5A2
:100E200085B0039304920746064694360291002942
:100E30001ED03C46B43400250196032D47D03846D9
:100E4000294600F0FEF800280FD0206880690028AD
:100E50000BD0317A032908D101F082FA06463846D0
:100E60000299049A039BB047019E08346D1CE4E785
:100E7000306803282BD1F96D386E81420AD9091ADE
:100E8000F965814200D301468AB23846049900F0E0
:100E900042FB1CE03C46B4340025032D14D03846F8
:100EA000294600F0CEF800280BD020680069002801
:100EB00007D0317A032904D101F052FA01463846AD
:100EC000884708346D1CE8E7384600F02BFB00200B
:100ED00005B0F0BDF8B507460646943600910029E6
:100EE0001BD035463C46B4340026032E61D038462C
:100EF000314600F0A6F800280CD020684069002890
:100F000008D0297A032905D101F02AFA0246384689
:100F1000009990470834761CE7E73068022842D1F0
:100F2000F8693D6AA84209D9401BF861F16B49197B
:100F3000F16382B2384600F0E0FA34E00096BE6910
:100F40003046294601F052FB00290ED1AE420CD3A7
:100F500000984068864208D20025384629462A462D
:100F600000F0CBFA009E75601DE03C46B4340025CD
:100F7000009E032D14D03846294600F062F8002860
:100F80000BD02068C068002807D0317A032904D12B
:100F900001F0E6F901463846884708346D1CE8E759
:100FA000384600F0CBFA307B012802D131460020D0
:100FB00030730020F8BD70B504469C2001212154F7
:100FC0004020206220662646B4360025032D10D02E
:100FD0002046294600F035F8002807D030684068E0
:100FE00001F0BEF9024621792046904708366D1C73
:100FF000ECE7002070BD01740020704700207047AE
:101000000020704770B504469C20205C032816D150
:101010002646B4360025032D11D02046294600F07F
:1010200010F8002808D03068C069002804D001F00A
:1010300097F901462046884708366D1CEBE70020EB
:1010400070BD022906D8C9004018B4214058411E7D
:10105000884170470020704780B54A78002A0ED03A
:10106000012A0FD0032A10D0052A11D0092A12D044
:10107000082A13D0062A14D100F017F813E000F064
:10108000FEF810E000F03CF90DE000F01CF90AE079
:1010900000F082F807E000F0A2F804E000F0D8F8D1
:1010A00001E000F03BFC002080BDBCB50D460446CD
:1010B00001A8002101802046B0306B881A0A012A5D
:1010C00026D0022A2DD0032A0AD0062A31D0072A98
:1010D00016D00F2A30D10068C06900281AD12BE041
:1010E000D9B2052949D001294AD002294BD0032978
:1010F0004CD004294DD000291ED10068406809E079
:10110000217C002918D14068002815D0006B1EE012
:101110000068006801F024F90246207C01A990478C
:101120001AE04068002818D0217C00290ED0C06A3F
:101130000DE0217C002904D02046294600F0EEFB7A
:10114000BCBD40680028F7D0406B00E0806A01F029
:1011500007F9014601A88847014601A80288002A2C
:10116000EED0E8880028EBD0824200D3024601A8E6
:101170000280204600F0ABF9BCBD00688069C9E779
:1011800000688068C6E70068C068C3E70068006957
:10119000C0E700684069BDE770B50446888800284C
:1011A00007D1C888002804D126469C363078032809
:1011B00003D1204600F0B2FB70BD88787F25054042
:1011C000B5702046294600F087FA204600F0AAF9BB
:1011D000002D01D0022000E00120307070BD70B5FC
:1011E0000D4604468E78022E1ED29C20215C20469D
:1011F0009C30032907D0022916D1002E24D00321C8
:10120000017066600AE0002E13D0606801281BD0D0
:10121000C1B22046FFF7BAFD01206060204631468A
:10122000FFF799FD02280FD12046294600F076FBF2
:1012300070BD002161600221017020463146FFF738
:10124000A5FD204600F06EF9204600F06BF970BD58
:1012500080B5CA88012A0AD19C22825C032A09D05F
:10126000022A04D1002181600146083103E000F028
:1012700055FB80BD011D012200F029F980BDB0B5EC
:1012800004469C20205CFE220240022A0FD1204608
:101290009C300121E16025460C35806800280AD089
:1012A000204600F04BF9E1680220084304E02046A4
:1012B00000F034FBB0BD0320E06002222046294646
:1012C00000F005F9B0BDB0B504464888012816D134
:1012D0000D46A42001212150287902280CD8C000F5
:1012E0002018B4214058002806D0806801F038F852
:1012F0000246204629469047204600F013F9B0BD2B
:10130000B0B50D4604469C20205CFE210140022918
:101310001AD1688801281BD120469C3000218160A9
:10132000287902280CD8C0002018B4214058002881
:1013300006D0806801F014F80246204629469047FE
:10134000204600F0EFF8B0BD2046294600F0E6FA4E
:10135000B0BDB0B50D4604469C20205C032816D1D4
:101360002879022813D8C0002018B421405800283A
:101370000DD0806800F0F4FF0246204629469047D1
:10138000E888002807D1204600F0CCF803E020468A
:10139000294600F0C3FA0020B0BDBCB50D46044696
:1013A00009797F200840052804D32046294600F00B
:1013B000B5FA6CE02A7860231340202B0FD1022964
:1013C0000DD8CA00A218B423D258002A07D09068BA
:1013D00000F0C6FF024620462946904757E06A784B
:1013E000002A0AD0012A11D0032A50D19C20205C67
:1013F000032817D002280FD0D7E79C22A25C032A2B
:1014000029D0022AD1D1002808D140E09C22A25C38
:10141000032A2CD0022AC8D1480638D0204600F032
:1014200007F934E06888002805D1480603D0204633
:1014300000F0FEF82979022926D8C8002018B42126
:101440004058002820D0806800F08AFF02462046DD
:101450002946904718E0204600F02EF9411E8841A9
:1014600001A908800222204600F031F80FE06A88C6
:10147000002A0CD1002807D0204600F0FBF828797C
:10148000022801D8C000D9E7204600F04BF8002020
:10149000BCBD0A7802704A7842708A78CB781B0209
:1014A0009A1842800A794B791B029A1882808A79AD
:1014B000C97909028918C180704710B50446802196
:1014C00000F0B6F80021204600F0B2F810BDB0B52B
:1014D0000C469421022343508261C261014694313B
:1014E000CC63016A914200D80A4693B2002529468E
:1014F000224600F001F92846B0BDB0B50C46016A9D
:10150000914200D80A4693B200252946224600F0AF
:10151000F3F82846B0BD10B50024214600F003F9C9
:10152000204610BD10B594210422425000242146CB
:101530002246234600F0E0F8204610BD10B5942165
:101540000522425000242146224600F0ECF82046B5
:1015500010BD000002490020086002490860704781
:10156000E4040020E00400201CB501A80221C170A1
:1015700001218170002444704F210170042100F08A
:101580006BFF20461CBD7CB56D4600242C710320EA
:10159000E8700220A8706C704F262E700521284636
:1015A00000F05AFF0120E870A8706C702E700421C2
:1015B000284600F051FF20467CBD1CB501A8022141
:1015C000C17001218170002444704F2101700421F9
:1015D00000F042FF20461CBD7CB513480024046087
:1015E000124804606D46AC716971012129710420B3
:1015F000E8700526AE706C704F242C70002A0AD05B
:10160000032A05D0022A05D0012A06D1014602E0AC
:10161000022100E00321684681716846C3710821F8
:1016200000F01AFF00207CBDE0040020E40400204C
:10163000BCB50D4668460024447140210171C57057
:1016400003218170447050210170062100F004FFD5
:10165000280601D5064800E0044801687F221540AD
:101660000122AA400A4302602046BCBDE4040020D7
:10167000E0040020BCB50D4668460024447180217A
:101680000171C570032181704470502101700621E1
:1016900000F0E2FE280601D5064800E00448016893
:1016A0007F2215400122AA40914301602046BCBD23
:1016B000E4040020E0040020080601D5054800E00D
:1016C000034802787F200140012088401040704785
:1016D000E4040020E00400201CB5684601710321E9
:1016E000C17002218170002444704F2101700521D6
:1016F00000F0B2FE20461CBDBCB51C46154668462F
:10170000437120220271C17050210170D91C817077
:10171000090A4170062100F09FFE2846214600F08C
:101720009BFE0020BCBD1CB5684642713022027190
:10173000C170032181700024447050210170062182
:1017400000F08AFE20461CBD0146AC20064A125C11
:101750000020002A01D0034600E009230B80002A64
:1017600001D10248784470470C0400206C1300003B
:101770000146AC20064A125C0020002A01D0034634
:1017800000E022230B80002A01D1024878447047F0
:101790000C0400204D13000080B5022903D103483A
:1017A000784400F061FD002080BDC0465109000072
:1017B00070B502291CD11C46154602214022FFF7B4
:1017C000B2FF0C4EB079002812D1022000F062FC6A
:1017D00002460A4878442946234600F093FC022832
:1017E00006D1072030700120B07103480068708076
:1017F000002070BDEC050020500600201D090000EF
:1018000070B504468321032540262A463346FFF758
:10181000E3FE204629462A463346FFF7DDFE2046F2
:1018200029463246FFF77FFF002070BD0020704739
:101830000020704780B5032903D10348784400F0A5
:1018400013FD002080BDC0463903000070B5032998
:101850001CD11C46154603214022FFF764FF0C4EA5
:10186000B079002812D1032000F014FC02460A4887
:1018700078442946234600F045FC022806D10B2077
:1018800030700520B071034800687080002070BD82
:10189000EC050020500600200503000012200880FF
:1018A000014878447047C0467A140000042008803C
:1018B000014878447047C0467C1400000E20088020
:1018C000014878447047C046701400000E2008801C
:1018D000014878447047C0466E1400000A20088012
:1018E000014878447047C0466C1400000E20088000
:1018F000014878447047C0464E1400000E2008800E
:10190000014878447047C0463E14000039200880E2
:10191000014878447047C046E911000080B50022B4
:101920008A56002A02D4FFF7C8FD80BD4A78772A7C
:101930000CD0062AF7D14A88144B9A42F3D1CA88B0
:10194000122A00D31222124979441CE08A88042A00
:1019500006D1CA88282A00D328220E49794412E0E9
:101960008A88052A06D1CA88922A00D392220A4977
:10197000794408E08A88072AD5D1CA88B22A00D3D8
:10198000B22206497944FFF7A2FD80BDEE030000B4
:101990000C120000FC130000F6110000741200008D
:1019A000B0B504461348D42100F010FF12480021BE
:1019B000C16001614161002C17D00E4C0F49794480
:1019C000002520462A46FFF780F90D4A7A4428462A
:1019D0002146FFF7AEF901200A4A7A442146FFF773
:1019E000A8F92046FFF7B2F9B0BD0248FFF785F924
:1019F000B0BDC0460C040020EC05002076110000AC
:101A0000E01200000A1300004021018001487844E0
:101A10007047C046721300000A21018001487844D3
:101A20007047C046A213000003B4014823E0000041
:101A30001B00000003B401481DE000001C00000072
:101A400003B4014817E000002300000003B401487C
:101A500011E000003200000003B401480BE0000078
:101A60005800000003B4014805E000005F000000DA
:101A700003B40248FFE70249084700007100000074
:101A80000100120080B5002000F010FD80BD04466A
:101A900000F002FD214600F0B3FF000080B50348CE
:101AA0007844052100F0D8FC80BDC0462A13000010
:101AB00010B51548C07808281AD0022814D0042878
:101AC0001AD0012817D1114C01212046FFF793FAB3
:101AD0002046FFF770FA0E488179002910D10021C5
:101AE000C1600161416110BD0848FFF78BFA10BD6C
:101AF0000648FFF785FA10BD0448FFF77FFA10BDCE
:101B00000520FFF7C4FFC0467C0200200C04002023
:101B1000EC05002080B51548C2787F21114002797C
:101B2000042A14D0022A06D0012A1ED1811D114890
:101B3000FFF747F980BD032917D84A000C4B9A18C4
:101B400000231382821D0B48FFF7C4F980BD0329CF
:101B50000BD8074A521843797A2B00D37A23137390
:101B6000821D04480023FFF75AF980BD7C02002043
:101B7000EC0500200C04002080B50A4601468320B5
:101B8000142300F093FA80BD80B50B48017800293A
:101B900000D080BD062181710A21017007498A7831
:101BA0004B781B029A187D2A00D37D224280C91CE3
:101BB000034800F011FE80BDEC0500207C020020EF
:101BC000E804002080B51D4908780E280ED016289C
:101BD00023D08A78497809028918102820D00F2844
:101BE00017D101291ED1FFF763FF1FE01448816858
:101BF0006431816016210E290BD0425A002A06D08A
:101C00001346643B00D200234352652A10D3891E39
:101C1000F1E70220FEF726FD80BDFFF7B5FF05E0E6
:101C2000032901D2002080BDFFF774FF012080BD91
:101C3000002101700520FFF72AFFC0467C0200202A
:101C4000EC05002080B50548182100F0BFFD00F02C
:101C5000FDFA034800210160416080BDEC050020D1
:101C60000406002070470000024800210160416026
:101C70007047C04604060020F0B587B00546084608
:101C800000F06EFB00283FD00446006900283BD0DE
:101C9000284600F065FB01466D461C22284600F0F0
:101CA0009BFD2668EE8067682F8100F0DFFB00282F
:101CB0002AD1B9B2B2B2154865230370A3685A435A
:101CC0004A435107D608002900D0761C04259D40C0
:101CD000A9191D318170090A417003210C4F7F44FD
:101CE000B84768461C21B847A1680848017001211F
:101CF000B847E06800F034FBA9B2B847B5B2206934
:101D000000F02EFB2946B84707B0F0BD7C0200204A
:101D100077070000F8B500F023FB0446C06900F027
:101D20001FFB054621787F2008400AD0002D09D0EE
:101D3000052802D1A07E00282ED000F097FB0028B5
:101D400013D0F8BD00F092FB0028FAD115481C25ED
:101D500085700021417065210170032100F07CFB3A
:101D60002046294600F078FBF8BD284600F056FED4
:101D700006460C486521017031461C318170090A04
:101D800041700321084F7F44B8471C212046B847C3
:101D9000B1B22846B847F8BD20462946FFF76CFF88
:101DA000F8BDC0467C020020CF06000070B50028B8
:101DB00027D00446134860C808388D4201D1761CEC
:101DC00046600D43002902D005602A4605E0002246
:101DD000026042600C4B5B1C1D438A4201D0002113
:101DE0004160082E0AD30321304600F0FFFB01209A
:101DF000002901D181070D43C0078543284631469C
:101E0000A04770BD04060020FFFFFF7FF8B50F4E0E
:101E100001243470B11CFF2702377A1C204600F0E1
:101E200003FB054670703A1A8719F91C022000F06E
:101E3000FBFAB8702D18AE19F47000F0EBFA00211F
:101E4000B171902171713071E81DF8BDE804002076
:101E5000F0B585B00E4601467A4C7C487844009037
:101E6000774FCDB2880700D0D3E010222A4030044B
:101E70006AD0002A68D10292039100F0F7FA002894
:101E800008D080210022384600F0FAFA012000F044
:101E9000E1F8F2E7A1682078072804910DD00A281C
:101EA0000ED00B2823D0002800D1C2E0B1B22846C2
:101EB000FEF74EFE002820D0BBE0B1B2009819E03A
:101EC000FF200630B1B20191814200D3B4E0BE7070
:101ED00053203870300A78700321384600F0BCFA7D
:101EE0005948019900F0B8FA0020207005E0B1B21D
:101EF00057487844544A00F013FA7D2000010499B1
:101F00000E182078002811D0FFF7C8FD802100228C
:101F1000384600F0B5FAA068B04200D383E0FFF77E
:101F200051FE00F0A3FA0028F0D1EAE70020A071EA
:101F300020706080039EB1066FD4FFF7AFFD70B2D2
:101F400000283146029A71D468070AD4002A04D1C5
:101F5000680665D40020A07120700E4600256580BB
:101F600001E00E4665882078002801D0002D18D1A8
:101F7000FFF794FD8021002538462A4600F080FABC
:101F8000032806D3B9787A7812025118C91C814205
:101F900003D0658025702846E6E7FFF713FE6588C5
:101FA000E1E700F0FDF9AA2803D100F01BFAAA2806
:101FB00023D1254A1078B02829D15078A7280CD0F1
:101FC000012824D1D0789178014320D10320064004
:101FD000FFF71CFF3146064643E7D078917801436E
:101FE00015D1002050709020107003203146014020
:101FF0007F20C0430918022633E715201249487094
:1020000055200870032031460140022629E76088E8
:1020100003E0B1B22846FEF79BFD80B205B0F0BDEB
:102020006088401FF9E70520FFF731FD052000F02B
:1020300007FA0420FFF72BFD0220FFF728FDC0461A
:102040007C020020EC050020E8040020950200003E
:1020500083FCFFFF70B50546FFF720FD0B4E802186
:1020600000243046224600F00BFA3078152806D8B6
:10207000012181400648014201D0002D04D1FFF723
:10208000A1FD0446401E8441204670BD7C02002014
:10209000207020007F210140032903D80248401806
:1020A000007B704700207047EC0500207CB5FF2ABC
:1020B0001DD815460E46044668464271202101711E
:1020C0005021017080212143C170D11C8170090A07
:1020D0004170062100F0C0F93046294600F0BCF9F5
:1020E0006006000E024908187D21090101827CBDAD
:1020F000EC05002080B50A4601468220FFF7D6FF96
:1021000080BD0000FEB502920F460446002B03D0AE
:1021100098880190186803E04120800001904448AD
:102120000090444EB7420ED0424D402628463146DC
:1021300000F04CFB029A402A00D33246284639462A
:1021400000F04EFB3B4EB078002822D0012826D06C
:10215000022828D0052863D13079F17809020918BE
:10216000354C226800208A4221D12168002926D0DE
:102170000298401F82B231490B68934200D208682E
:1021800081B23B2900D33B2085B22D480068711DE8
:1021900038E00020B07170713071F07003E0F01C15
:1021A0000421FFF759FC23484021A0470020224981
:1021B00000220A6022490A6020490A60FEBDB17906
:1021C0007279120252181F490A600A68019B9A42EA
:1021D000EDD80968194F39607178327812025118B8
:1021E000194A11601649009808603A680299C91F97
:1021F0008BB29A4200D239688AB2392A00D3392187
:102200008DB2F11D2A4600F0EBFA0C480168491B1B
:1022100001600B480168491901602068401C20607A
:1022200006480068002801D00120FEBD0220BEE75C
:10223000E80400200C0600204C0600205406002074
:1022400058060020500600205C06002003480021AC
:102250000160034801600348016070474C0600209C
:102260005806002054060020F8B5274A1568274B69
:102270001968002921D0002D1FD00090264C671D21
:102280003B263846314600F0A1FA204A0520A070CE
:1022900022480168090A2170006860701C490868BA
:1022A000000AE070086820710968106800290CD0E5
:1022B0003B2800D81668384612E015480021016016
:1022C0001160144801701960F8BD392801D9392608
:1022D00000E016681068000A60711068A071E01DC7
:1022E0002946324600F07CFA084B009A06491868E5
:1022F000801B1860A819086005490868401C086020
:10230000054840219047F8BD58060020540600209B
:102310004C060020EC0500200C0600205C06002086
:1023200010B500290AD0064B00241C60054B19602B
:10233000054B1A60054A1160FFF796FF10BDC046B5
:102340004C060020540600205806002050060020AD
:102350007A460249C91C891A401A70475123D0C0D5
:1023600080B50449884204D30349884201D2FFF76B
:10237000EFFF80BD0000D0C0112ED0C001DF0029CA
:1023800000D170470846FFF782FB0000E0B500204F
:10239000019002486946FFF7F1FF8CBD3C020060E6
:1023A000E0B50020019003486946FFF7E7FFC0B29F
:1023B0008CBDC0464F9F006010B58AB00F9C07943B
:1023C0000E9C06940D9C05940C9C0494039302921D
:1023D0000191009002486946FFF7D0FF0AB010BD96
:1023E000D8A60060E0B50020019003486946FFF7D9
:1023F000C5FFC0B28CBDC0463CA00060F8B500214E
:1024000002910190024801A9FFF7B8FF04B080BD16
:1024100058640060E0B50020019002486946FFF76B
:10242000ADFF8CBD6E6A0060FEB501AB07C303480B
:1024300001A9FFF7A3FF06B080BDC046D4740060B9
:1024400084B0002102910190024801A9FFF796FF94
:10245000FFDEC046BE9A0060F8B5019100900248C8
:102460006946FFF78BFF8FBD81830060E0B50020D8
:10247000019002486946FFF781FF8CBDBB84006074
:10248000FEB501AB07C3034801A9FFF777FF80B290
:1024900006B080BDE4850060E0B5002001900248F0
:1024A0006946FFF76BFF8CBDB1870060F8B500216E
:1024B00002910190024801A9FFF760FF04B080BDBE
:1024C000060B0160F8B5002102910190034801A9B3
:1024D000FFF754FFC0B204B080BDC0468B9C0060C3
:1024E000002243088B4274D303098B425FD3030A53
:1024F0008B4244D3030B8B4228D3030C8B420DD366
:10250000FF22090212BA030C8B4202D312120902F3
:1025100065D0030B8B4219D300E0090AC30B8B4231
:1025200001D3CB03C01A5241830B8B4201D38B03DF
:10253000C01A5241430B8B4201D34B03C01A524184
:10254000030B8B4201D30B03C01A5241C30A8B42C7
:1025500001D3CB02C01A5241830A8B4201D38B02B2
:10256000C01A5241430A8B4201D34B02C01A524156
:10257000030A8B4201D30B02C01A5241CDD2C309C8
:102580008B4201D3CB01C01A524183098B4201D344
:102590008B01C01A524143098B4201D34B01C01A2F
:1025A000524103098B4201D30B01C01A5241C308A7
:1025B0008B4201D3CB00C01A524183088B4201D316
:1025C0008B00C01A524143088B4201D34B00C01A02
:1025D0005241411A00D20146524110467047FFE76E
:1025E00001B5002000F0F0F802BDC0460029F7D088
:1025F00076E7704703460B437FD4002243088B42A3
:1026000074D303098B425FD3030A8B4244D3030B79
:102610008B4228D3030C8B420DD3FF22090212BA3E
:10262000030C8B4202D31212090265D0030B8B42BA
:1026300019D300E0090AC30B8B4201D3CB03C01AA4
:102640005241830B8B4201D38B03C01A5241430B7F
:102650008B4201D34B03C01A5241030B8B4201D36F
:102660000B03C01A5241C30A8B4201D3CB02C01ADA
:102670005241830A8B4201D38B02C01A5241430A52
:102680008B4201D34B02C01A5241030A8B4201D341
:102690000B02C01A5241CDD2C3098B4201D3CB01E8
:1026A000C01A524183098B4201D38B01C01A524197
:1026B00043098B4201D34B01C01A524103098B429B
:1026C00001D30B01C01A5241C3088B4201D3CB0086
:1026D000C01A524183088B4201D38B00C01A524169
:1026E00043088B4201D34B00C01A5241411A00D219
:1026F00001465241104670475DE0CA0F00D0494282
:10270000031000D34042534000229C4603098B42F1
:102710002DD3030A8B4212D3FC22890112BA030A79
:102720008B420CD3890192118B4208D389019211FB
:102730008B4204D389013AD0921100E08909C30980
:102740008B4201D3CB01C01A524183098B4201D382
:102750008B01C01A524143098B4201D34B01C01A6D
:10276000524103098B4201D30B01C01A5241C308E5
:102770008B4201D3CB00C01A524183088B4201D354
:102780008B00C01A5241D9D243088B4201D34B006F
:10279000C01A5241411A00D20146634652415B10B1
:1027A000104601D34042002B00D549427047634692
:1027B0005B1000D3404201B5002000F005F802BDD7
:1027C0000029F8D016E770477047C04610B50022C0
:1027D00000F00AF810BDC04610B500F011F810BDA9
:1027E00010B500F055F810BD0B0010B511001A001F
:1027F00000F0A6F810BDC04610B500F03DF910BDC0
:10280000F0B505000F2A33D90324030026000B433B
:102810001E401C4237D11500103D2D0903000C004D
:10282000AC462F013F1865685D60A5689D60E5684E
:10283000DD60256810341D601D001033BD42F2D1EB
:1028400065460F230C2401352D0149191340451904
:1028500014421AD08C59AC5104369C1B032CF9D865
:10286000043B9B0801339B00ED18C91803231A4051
:10287000561E002A06D00023CC5C1A00EC5401330B
:102880009642F9D1F0BD561EF5E71A00F0E7C046B2
:10289000F0B588420AD98B18984207D2531E002AF5
:1028A00003D0CA5CC254013BFBD2F0BD05000F2A25
:1028B0000AD8561E002AF8D00023CC5C1A00EC542B
:1028C00001339642F9D1F0E70324030026000B43BD
:1028D0001E401C4230D11500103D2D0903000C0094
:1028E000AC462F013F1825681D6065685D60A568CE
:1028F0009D60E5681034DD601D001033BD42F2D1EB
:1029000065460F230C2401352D0149191340451943
:10291000144213D08C59AC5104369C1B032CF9D8AB
:10292000043B9B0801339B00ED18C91803231A4090
:10293000561E002AC0D1B8E7561EBDE71A00B8E7F8
:10294000F0B50500830749D0541E002A45D0030086
:102950000326CAB202E00135013C3ED301332A709E
:102960003342F8D1032C30D9FF220A401502AD18AA
:102970002A04AD180F2C34D92700103F3F093E011F
:10298000B4461E001A001036664415605560956006
:10299000D56010329642F8D101373F01DB190F277D
:1029A0000C22274022403C00002A0ED03E1FB608D1
:1029B000B400A4461A001C1D644420C2A242FCD1EB
:1029C00003240136B6009B193C40002C05D0C9B247
:1029D0001C19197001339C42FBD1F0BD0300140097
:1029E000C0E72700E2E7C046F0C041464A465346EA
:1029F0005C466D4676467EC02838F0C80020704799
:102A000010307CC890469946A246AB46B54608C8E9
:102A10002838F0C8081C00D10120184710B58307DA
:102A20000AD00300032102E001330B4205D01A78DB
:102A3000002AF9D1181A10BD030019680C4A0D4C70
:102A40008A188A4322420FD15968094A04338A18E6
:102A50008A43224208D15968054A04338A188A43B6
:102A60002242F1D000E001331A78002AFBD1E1E7DD
:102A7000FFFEFEFE8080808010B50A000021FFF777
:102A80005FFF10BD31323334353637383941424378
:102A900044454647484A4B4C4D4E5051525354556D
:102AA000565758595A6162636465666768696A6B0C
:102AB0006D6E6F707172737475767778797A0000C5
:102AC0002C000080540C00800000008000000000FA
:102AD0000000000009211101000122220006A0FFD0
:102AE0000901A1010903150026FF00750895408121
:102AF000080904150026FF00750895409108C005D7
:102B00000F3900021810050038B60834A909A0478B
:102B10008BFDA0768815B66500011E001C1005000F
:102B2000DF60DDD88945C74C9CD2659D9E648A9F35
:102B300000000306B20077009D18D0C0AD18D0C0C9
:102B4000BD18D0C0CD18D0C0DD18D0C0ED18D0C091
:102B5000FD18D0C00D19D0C012034D00530046001F
:102B60005400310030003000770092000000000176
:102B70000500010088000000070000002A00440052
:102B80006500760069006300650049006E0074000E
:102B90006500720066006100630065004700550033
:102BA0004900440073000000500000007B00310029
:102BB00033006400360033003400300030002D0054
:102BC00032004300390037002D0030003000300063
:102BD00034002D0030003000300030002D00340073
:102BE000630036003500360034003600370036000A
:102BF0003500370032007D00000000000A000000B0
:102C000000000306B200080001000000A800080050
:102C100002000100A0001400030057494E55534222
:102C20000000000000000000000084000400070015
:102C30002A004400650076006900630065004900D1
:102C40006E0074006500720066006100630065003C
:102C500047005500490044007300000050007B000D
:102C6000430045003800300039003200360034009F
:102C70002D0034004200320034002D0034004500A5
:102C8000380031002D0041003800420032002D0094
:102C90003500370045004400300031004400350065
:102CA00038003000450031007D00000000000000C9
:102CB000990CD0C0C70CD0C0090CD0C000000000D7
:102CC000000000009917D0C0B117D0C0000000006C
:102CD0000000000000000000091AD0C0091AD0C08E
:102CE000091AD0C0191AD0C00118D0C02D18D0C0F0
:102CF0003118D0C000000000000000003518D0C01E
:102D00004D18D0C0000000000000000000000000CE
:102D1000091AD0C0091AD0C0091AD0C0191AD0C0D7
:102D20001201100200000040972C11100102010254
:102D30000301040309040E034C00650064006700EE
:102D4000650072000E034E0061006E006F002000EF
:102D500053000A033000300030003100280000002A
:102D600000010400010000000000000001015749BB
:102D70004E5553420000000000000000000000001B
:102D80000000000009024000020102C032090400F4
:102D900000020300000209211101000122220007A4
:102DA00005820340000107050203400001090401F8
:102DB0000002FFFFFF020705830340000107050330
:102DC000034000010A06000200000040010060000C
:102DD00002000000000000000000000000000000F1
:102DE00000000000000000000000000000000000E3
:102DF00000000000000000000000000000000000D3
:102E000001054F637472610205312E302E300401CA
:012E1000FFC2
:04000005C0D0003136
:00000001FF
